:0B08C80012000312044C12027080F8B2
:10082E0000000E0A0A1B000000000E11000000005E
:08083E0000000000110E000093
:0608AB00C2968F80D29777
:0808B1007F027EEFDEFEDFFC9A
:0108B900221C
:0A08D300C2951208ABC2970208B1EB
:1007BD00CFCDCFCECCCE12004D7C007D0A12004D98
:0407CD00ED2430FFE8
:0A07D100D2951208ABC2970208B1DE
:10084600AE07BE0104ED148006BE0209ED243F4446
:0608560080FF1208D3220E
:1003C6007F381208D37F0C1208D37F061208D37F1A
:1003D600011208D37F401208D3E4FDFC742E2DF5DC
:1003E6008274083CF583E493FF1207D10DBD00012A
:1003F6000CED64084C70E51208B17F481208D3E48E
:10040600FCFD74362DF58274083CF583E493FF12E7
:1004160007D10DBD00010CED64084C70E51208B162
:100426007F501208D3E4FCFD743E2DF58274083C1F
:10043600F583E493FF1207D10DBD00010CED6408AE
:060446004C70E50208B154
:0508F9007F010208D39D
:0A08DD00AC03120846AF040207D175
:06079A008B088A09890AA0
:1007A000120846E4FDAB08AA09A90A8D82758300E8
:0C07B00012000EFF60061207D10D80E958
:0107BC00221A
:0C0736007F0AEA24FFFDE434FFFC7E0093
:080742008E0D8F0E8C0F8D103F
:10074A007F017E00E4FBEBC39510E50F6480F8742B
:0E075A008098500AAC0DAD0E12003B0B80E8EB
:01076800226E
:0407DB008A0A8B0BF0
:1007DF00120846AA0CEAD39400400D120736AC0A51
:0807EF00AD0B1207BD1A80EDED
:0107F70022DF
:10068B00120846C3EA64809480400B7F2B1207D17B
:10069B008A168B17800E7F2D1207D1C3E49BF5179B
:1006AB00E49AF516AA15EAD39400400D120736AC5E
:0906BB0016AD171207BD1A80EDFF
:0106C4002213
:0406C5008A218B22D9
:1006C900120846AA23EAD3940040297F101207385A
:1006D900AC21AD22CFCDCFCECCCE12004DEF540FF1
:1006E900FEC3940AEE5004243080022437FF120717
:0406F900D11A80D1C1
:0106FD0022DA
:0406FE008A268B2796
:10070200120846AA28EAD394004028EA24FFFDE40E
:1007120034FFFC7F027E00120742AC26AD27CFCD0C
:10072200CFCECCCE12004DEF54012430FF1207D1B0
:030732001A80D258
:0107350022A1
:0908E700120846EB14FF0207D1D0
:10085C00EF1FAC0670011E4C600A7D027CEFDCFEC3
:04086C00DDFC80EC43
:010870002265
:10017000808386898D909396999C9FA2A5A8ABAE0B
:10018000B1B4B7BABCBFC2C5C7CACCCFD1D4D6D818
:10019000DADDDFE1E3E5E7E9EAECEEEFF1F2F4F5D1
:1001A000F6F7F8F9FAFBFCFDFDFEFFFFFFFFFFFF8E
:1001B000FFFFFFFFFFFFFEFDFDFCFBFAF9F8F7F67E
:1001C000F5F4F2F1EFEEECEAE9E7E5E3E1DEDDDAA2
:1001D000D8D6D4D1CFCCCAC7C5C2BFBCBAB7B4B1C8
:1001E000AEABA8A5A29F9C999693908D898683809B
:1001F000807C7976726F6C696663605D5A57555181
:100200004E4C484543403D3A383533302E2B292754
:100210002522201E1C1A1816151311100E0D0B0A7C
:10022000090807060504030202010000000000009F
:10023000000000000000010202030405060708098F
:100240000A0B0D0E1011131516181A1C1E2022254C
:1002500027292B2E303335383A3D404345484C4E04
:100260005155575A5D606366696C6F7276797C8010
:09081500012900012A00012B3227
:10053E00E4F508F509E51B75F010A4AEF0FBAA066C
:10054E00E4F9F87F247EF4FDFC1206478E088F092D
:10055E00AB07AA06E4C39BFFE49AFE74019400FD68
:10056E00E49400FCE4FB7A01F9F81206478F29AEF9
:10057E0008AF09AB07AA06E4C39BFFE49AFE740119
:10058E009400FDE49400FCE4FB7A01F9F8120647AE
:04059E00AF038F2AEE
:0105A2002236
:1005A300E4F508F509E51BFD7C007E277F101200AA
:1005B3004D8E088F09AB07AA06E4C39BFFE49AFE9E
:1005C30074019400FDE49400FCE4FB7A01F9F81251
:1005D30006478F29AE08AF09AB07AA06E4C39BFF02
:1005E300E49AFE74019400FDE49400FCE4FB7A01B8
:0905F300F9F8120647AF038F2A44
:0105FC0022DC
:10088500E51E90017093F5A0E4B51E06E4B40102DF
:03089500F51E222B
:100898005389F0438901852A8A85298CC28DD2AF74
:0308A800D2A922B0
:0908F000852A8A85298CD28C220C
:0308FE00C28C2287
:030901008F2B2217
:03090400AF2B22F4
:03000B000205FDEE
:1005FD00C0E0C0F0C083C082C0D0E51814602504EF
:10060D00702D852A8A85298C051DE51D75F064845C
:10061D0085F01DE51DC3952B500575A0FF80107548
:10062D00A000800B852A8A85298C051E120885D08D
:0A063D00D0D082D083D0F0D0E0329C
:1004C600E4F52C2090137F14FE12085C3090FD7F1B
:1004D600147E0012085C752C012091147F147E0096
:1004E60012085C3091FD7F147E0012085C752C02A8
:1004F6002092147F147E0012085C3092FD7F147ED9
:100506000012085C752C032093147F147E001208D9
:100516005C3093FD7F147E0012085C752C042094D9
:10052600147F147E0012085C3094FD7F147E001246
:08053600085C752C05AF2C22B6
:1007F80068656C6C6F2C776F726C6400465245515B
:0D080800554E43453A00485A3A00443A0024
:0F081E00011900011800011B01011E00011D003E
:0E08BA00EF1460060470060205A312053E222C
:10087100EF14600A14600A240270067F01227F02CD
:04088100227F0022B0
:10076900EF14600A14601A240270250208FE751B32
:1007790001E4F51D7F321209011205A3E4F5188081
:100789000C751B01E4F51E12053E7518011208F0DF
:01079900223D
:060003001203C60208987A
:10027000E51914601A1470030202FE2402600302DE
:1002800003397BFF7A0779F87D017F0102079A1213
:1002900009048F1CE51CB464047F638002AF1C8FCB
:1002A0001C7BFF7A0879047D017F0112079A7B018C
:1002B0007D027F021208E77B017D037F021208E7BF
:1002C0007BFF7A08790E7D057F0212079A7BFF7A01
:1002D0000879127D0B7F0212079A7B257D0F7F0222
:1002E0001208DDE51BFB7A00750C027D087F021207
:1002F00007DBE51CFB7A00750C027D0D80367BFF69
:100300007A0879047D017F0112079A7B027D027FC2
:10031000021208E77B037D037F021208E77BFF7A66
:1003200008790E7D057F0212079AE51BFB7A00759E
:0A0330000C027D087F021207DB2299
:10044C001204C68F1AE51A24FE601A146025146073
:10045C003314604924047061AF191208718F19129A
:10046C0007690208F9051BE51BC3940A4011751BAB
:10047C000A800C151BE51BD394015003751B01AFAF
:10048C00180208BAE51870311209048F1C740A2579
:10049C001CF51CC39464401C751C648017E5187013
:1004AC00181209048F1C74F6251CF51CD3940A50E1
:0A04BC0003751C0AAF1C120901228F
:0300000002033ABE
:0C033A00787FE4F6D8FD75812C02038169
:10000E00BB010CE58229F582E5833AF583E02250A7
:10001E0006E92582F8E622BBFE06E92582F8E222F1
:0D002E00E58229F582E5833AF583E493220B
:10003B00EF8DF0A4A8F0CF8CF0A428CE8DF0A42ED9
:02004B00FE2293
:10004D00BC000BBE0029EF8DF084FFADF022E4CC97
:10005D00F875F008EF2FFFEE33FEEC33FCEE9DEC60
:10006D00984005FCEE9DFE0FD5F0E9E4CEFD22EDA6
:10007D00F8F5F0EE8420D21CFEADF075F008EF2FF0
:10008D00FFED33FD4007985006D5F0F222C398FDE1
:05009D000FD5F0EA227E
:10064700C2D5E830E70FB2D5E4C39BFBE49AFAE4DE
:1006570099F9E498F8EC30E717B2D512067D120045
:10066700DEE4C39BFBE49AFAE499F9E498F8800383
:100677001200DE30D50DE4C39FFFE49EFEE49DFD2E
:04068700E49CFC22D1
:100346000208C8E493A3F8E493A34003F68001F2FD
:1003560008DFF48029E493A3F85407240CC8C333B8
:10036600C4540F4420C8834004F456800146F6DF87
:10037600E4800B0102040810204080900815E47EFA
:10038600019360BCA3FF543F30E509541FFEE4937C
:10039600A360010ECF54C025E060A840B8E493A343
:1003A600FAE493A3F8E493A3C8C582C8CAC583CA6E
:1003B600F0A3C8C582C8CAC583CADFE9DEE780BE26
:01082D0000CA
:1000A20075F008758200EF2FFFEE33FECD33CDCC15
:1000B20033CCC58233C5829BED9AEC99E582984098
:1000C2000CF582EE9BFEED9AFDEC99FC0FD5F0D675
:1000D200E4CEFBE4CDFAE4CCF9A88222B800C1B99F
:1000E2000059BA002DEC8BF084CFCECDFCE5F0CBDD
:1000F200F97818EF2FFFEE33FEED33FDEC33FCEB16
:1001020033FB10D703994004EB99FB0FD8E5E4F9D0
:10011200FA227818EF2FFFEE33FEED33FDEC33FCBD
:10012200C933C910D7059BE99A4007EC9BFCE99AB1
:10013200F90FD8E0E4C9FAE4CCFB2275F010EF2FF6
:10014200FFEE33FEED33FDCC33CCC833C810D707F6
:100152009BEC9AE899400AED9BFDEC9AFCE899F831
:0E0162000FD5F0DAE4CDFBE4CCFAE4C8F922C4
:00000001FF
